{
  "_format": "hh-sol-artifact-1",
  "contractName": "chewingGum",
  "sourceName": "contracts/chewingGum.sol",
  "abi": [
    {
      "inputs": [],
      "stateMutability": "nonpayable",
      "type": "constructor"
    },
    {
      "inputs": [],
      "name": "ApprovalCallerNotOwnerNorApproved",
      "type": "error"
    },
    {
      "inputs": [],
      "name": "ApprovalQueryForNonexistentToken",
      "type": "error"
    },
    {
      "inputs": [],
      "name": "BalanceQueryForZeroAddress",
      "type": "error"
    },
    {
      "inputs": [],
      "name": "MintERC2309QuantityExceedsLimit",
      "type": "error"
    },
    {
      "inputs": [],
      "name": "MintToZeroAddress",
      "type": "error"
    },
    {
      "inputs": [],
      "name": "MintZeroQuantity",
      "type": "error"
    },
    {
      "inputs": [],
      "name": "OwnerQueryForNonexistentToken",
      "type": "error"
    },
    {
      "inputs": [],
      "name": "OwnershipNotInitializedForExtraData",
      "type": "error"
    },
    {
      "inputs": [],
      "name": "TransferCallerNotOwnerNorApproved",
      "type": "error"
    },
    {
      "inputs": [],
      "name": "TransferFromIncorrectOwner",
      "type": "error"
    },
    {
      "inputs": [],
      "name": "TransferToNonERC721ReceiverImplementer",
      "type": "error"
    },
    {
      "inputs": [],
      "name": "TransferToZeroAddress",
      "type": "error"
    },
    {
      "inputs": [],
      "name": "URIQueryForNonexistentToken",
      "type": "error"
    },
    {
      "anonymous": false,
      "inputs": [
        {
          "indexed": true,
          "internalType": "address",
          "name": "owner",
          "type": "address"
        },
        {
          "indexed": true,
          "internalType": "address",
          "name": "approved",
          "type": "address"
        },
        {
          "indexed": true,
          "internalType": "uint256",
          "name": "tokenId",
          "type": "uint256"
        }
      ],
      "name": "Approval",
      "type": "event"
    },
    {
      "anonymous": false,
      "inputs": [
        {
          "indexed": true,
          "internalType": "address",
          "name": "owner",
          "type": "address"
        },
        {
          "indexed": true,
          "internalType": "address",
          "name": "operator",
          "type": "address"
        },
        {
          "indexed": false,
          "internalType": "bool",
          "name": "approved",
          "type": "bool"
        }
      ],
      "name": "ApprovalForAll",
      "type": "event"
    },
    {
      "anonymous": false,
      "inputs": [
        {
          "indexed": true,
          "internalType": "uint256",
          "name": "fromTokenId",
          "type": "uint256"
        },
        {
          "indexed": false,
          "internalType": "uint256",
          "name": "toTokenId",
          "type": "uint256"
        },
        {
          "indexed": true,
          "internalType": "address",
          "name": "from",
          "type": "address"
        },
        {
          "indexed": true,
          "internalType": "address",
          "name": "to",
          "type": "address"
        }
      ],
      "name": "ConsecutiveTransfer",
      "type": "event"
    },
    {
      "anonymous": false,
      "inputs": [
        {
          "indexed": true,
          "internalType": "address",
          "name": "from",
          "type": "address"
        },
        {
          "indexed": true,
          "internalType": "address",
          "name": "to",
          "type": "address"
        },
        {
          "indexed": true,
          "internalType": "uint256",
          "name": "tokenId",
          "type": "uint256"
        }
      ],
      "name": "Transfer",
      "type": "event"
    },
    {
      "inputs": [
        {
          "internalType": "address",
          "name": "to",
          "type": "address"
        },
        {
          "internalType": "uint256",
          "name": "tokenId",
          "type": "uint256"
        }
      ],
      "name": "approve",
      "outputs": [],
      "stateMutability": "payable",
      "type": "function"
    },
    {
      "inputs": [
        {
          "internalType": "address",
          "name": "owner",
          "type": "address"
        }
      ],
      "name": "balanceOf",
      "outputs": [
        {
          "internalType": "uint256",
          "name": "",
          "type": "uint256"
        }
      ],
      "stateMutability": "view",
      "type": "function"
    },
    {
      "inputs": [
        {
          "internalType": "uint256",
          "name": "tokenId",
          "type": "uint256"
        }
      ],
      "name": "getApproved",
      "outputs": [
        {
          "internalType": "address",
          "name": "",
          "type": "address"
        }
      ],
      "stateMutability": "view",
      "type": "function"
    },
    {
      "inputs": [
        {
          "internalType": "address",
          "name": "owner",
          "type": "address"
        },
        {
          "internalType": "address",
          "name": "operator",
          "type": "address"
        }
      ],
      "name": "isApprovedForAll",
      "outputs": [
        {
          "internalType": "bool",
          "name": "",
          "type": "bool"
        }
      ],
      "stateMutability": "view",
      "type": "function"
    },
    {
      "inputs": [],
      "name": "maxQuantity",
      "outputs": [
        {
          "internalType": "uint256",
          "name": "",
          "type": "uint256"
        }
      ],
      "stateMutability": "view",
      "type": "function"
    },
    {
      "inputs": [
        {
          "internalType": "uint256",
          "name": "quantity",
          "type": "uint256"
        }
      ],
      "name": "mint",
      "outputs": [],
      "stateMutability": "payable",
      "type": "function"
    },
    {
      "inputs": [],
      "name": "name",
      "outputs": [
        {
          "internalType": "string",
          "name": "",
          "type": "string"
        }
      ],
      "stateMutability": "view",
      "type": "function"
    },
    {
      "inputs": [],
      "name": "owner",
      "outputs": [
        {
          "internalType": "address",
          "name": "",
          "type": "address"
        }
      ],
      "stateMutability": "view",
      "type": "function"
    },
    {
      "inputs": [
        {
          "internalType": "uint256",
          "name": "tokenId",
          "type": "uint256"
        }
      ],
      "name": "ownerOf",
      "outputs": [
        {
          "internalType": "address",
          "name": "",
          "type": "address"
        }
      ],
      "stateMutability": "view",
      "type": "function"
    },
    {
      "inputs": [],
      "name": "prompt",
      "outputs": [
        {
          "internalType": "string",
          "name": "",
          "type": "string"
        }
      ],
      "stateMutability": "view",
      "type": "function"
    },
    {
      "inputs": [],
      "name": "promptDescription",
      "outputs": [
        {
          "internalType": "string",
          "name": "",
          "type": "string"
        }
      ],
      "stateMutability": "view",
      "type": "function"
    },
    {
      "inputs": [
        {
          "internalType": "address",
          "name": "from",
          "type": "address"
        },
        {
          "internalType": "address",
          "name": "to",
          "type": "address"
        },
        {
          "internalType": "uint256",
          "name": "tokenId",
          "type": "uint256"
        }
      ],
      "name": "safeTransferFrom",
      "outputs": [],
      "stateMutability": "payable",
      "type": "function"
    },
    {
      "inputs": [
        {
          "internalType": "address",
          "name": "from",
          "type": "address"
        },
        {
          "internalType": "address",
          "name": "to",
          "type": "address"
        },
        {
          "internalType": "uint256",
          "name": "tokenId",
          "type": "uint256"
        },
        {
          "internalType": "bytes",
          "name": "_data",
          "type": "bytes"
        }
      ],
      "name": "safeTransferFrom",
      "outputs": [],
      "stateMutability": "payable",
      "type": "function"
    },
    {
      "inputs": [
        {
          "internalType": "address",
          "name": "operator",
          "type": "address"
        },
        {
          "internalType": "bool",
          "name": "approved",
          "type": "bool"
        }
      ],
      "name": "setApprovalForAll",
      "outputs": [],
      "stateMutability": "nonpayable",
      "type": "function"
    },
    {
      "inputs": [
        {
          "internalType": "bytes4",
          "name": "interfaceId",
          "type": "bytes4"
        }
      ],
      "name": "supportsInterface",
      "outputs": [
        {
          "internalType": "bool",
          "name": "",
          "type": "bool"
        }
      ],
      "stateMutability": "view",
      "type": "function"
    },
    {
      "inputs": [],
      "name": "symbol",
      "outputs": [
        {
          "internalType": "string",
          "name": "",
          "type": "string"
        }
      ],
      "stateMutability": "view",
      "type": "function"
    },
    {
      "inputs": [
        {
          "internalType": "uint256",
          "name": "tokenId",
          "type": "uint256"
        }
      ],
      "name": "tokenURI",
      "outputs": [
        {
          "internalType": "string",
          "name": "",
          "type": "string"
        }
      ],
      "stateMutability": "view",
      "type": "function"
    },
    {
      "inputs": [],
      "name": "totalSupply",
      "outputs": [
        {
          "internalType": "uint256",
          "name": "",
          "type": "uint256"
        }
      ],
      "stateMutability": "view",
      "type": "function"
    },
    {
      "inputs": [
        {
          "internalType": "address",
          "name": "from",
          "type": "address"
        },
        {
          "internalType": "address",
          "name": "to",
          "type": "address"
        },
        {
          "internalType": "uint256",
          "name": "tokenId",
          "type": "uint256"
        }
      ],
      "name": "transferFrom",
      "outputs": [],
      "stateMutability": "payable",
      "type": "function"
    }
  ],
  "bytecode": "0x608060405260056009556040518060800160405280605181526020016200230560519139600a90805190602001906200003a9291906200017d565b50604051806060016040528060338152602001620022d260339139600b90805190602001906200006c9291906200017d565b503480156200007a57600080fd5b506040518060400160405280600a81526020017f63686577696e6747756d000000000000000000000000000000000000000000008152506040518060400160405280600381526020017f43525400000000000000000000000000000000000000000000000000000000008152508160029080519060200190620000ff9291906200017d565b508060039080519060200190620001189291906200017d565b50620001296200017860201b60201c565b600081905550505033600860006101000a81548173ffffffffffffffffffffffffffffffffffffffff021916908373ffffffffffffffffffffffffffffffffffffffff16021790555062000292565b600090565b8280546200018b906200025c565b90600052602060002090601f016020900481019282620001af5760008555620001fb565b82601f10620001ca57805160ff1916838001178555620001fb565b82800160010185558215620001fb579182015b82811115620001fa578251825591602001919060010190620001dd565b5b5090506200020a91906200020e565b5090565b5b80821115620002295760008160009055506001016200020f565b5090565b7f4e487b7100000000000000000000000000000000000000000000000000000000600052602260045260246000fd5b600060028204905060018216806200027557607f821691505b602082108114156200028c576200028b6200022d565b5b50919050565b61203080620002a26000396000f3fe6080604052600436106101145760003560e01c80637c65d711116100a0578063a22cb46511610064578063a22cb4651461037f578063b88d4fde146103a8578063c87b56dd146103c4578063e640cf7d14610401578063e985e9c51461042c57610114565b80637c65d711146102b75780638da5cb5b146102e2578063953637311461030d57806395d89b4114610338578063a0712d681461036357610114565b806318160ddd116100e757806318160ddd146101da57806323b872dd1461020557806342842e0e146102215780636352211e1461023d57806370a082311461027a57610114565b806301ffc9a71461011957806306fdde0314610156578063081812fc14610181578063095ea7b3146101be575b600080fd5b34801561012557600080fd5b50610140600480360381019061013b919061177c565b610469565b60405161014d91906117c4565b60405180910390f35b34801561016257600080fd5b5061016b6104fb565b6040516101789190611878565b60405180910390f35b34801561018d57600080fd5b506101a860048036038101906101a391906118d0565b61058d565b6040516101b5919061193e565b60405180910390f35b6101d860048036038101906101d39190611985565b61060c565b005b3480156101e657600080fd5b506101ef610750565b6040516101fc91906119d4565b60405180910390f35b61021f600480360381019061021a91906119ef565b610767565b005b61023b600480360381019061023691906119ef565b610a8c565b005b34801561024957600080fd5b50610264600480360381019061025f91906118d0565b610aac565b604051610271919061193e565b60405180910390f35b34801561028657600080fd5b506102a1600480360381019061029c9190611a42565b610abe565b6040516102ae91906119d4565b60405180910390f35b3480156102c357600080fd5b506102cc610b77565b6040516102d99190611878565b60405180910390f35b3480156102ee57600080fd5b506102f7610c05565b604051610304919061193e565b60405180910390f35b34801561031957600080fd5b50610322610c2b565b60405161032f9190611878565b60405180910390f35b34801561034457600080fd5b5061034d610cbd565b60405161035a9190611878565b60405180910390f35b61037d600480360381019061037891906118d0565b610d4f565b005b34801561038b57600080fd5b506103a660048036038101906103a19190611a9b565b610e43565b005b6103c260048036038101906103bd9190611c10565b610f4e565b005b3480156103d057600080fd5b506103eb60048036038101906103e691906118d0565b610fc1565b6040516103f89190611878565b60405180910390f35b34801561040d57600080fd5b50610416611060565b60405161042391906119d4565b60405180910390f35b34801561043857600080fd5b50610453600480360381019061044e9190611c93565b611066565b60405161046091906117c4565b60405180910390f35b60006301ffc9a760e01b827bffffffffffffffffffffffffffffffffffffffffffffffffffffffff191614806104c457506380ac58cd60e01b827bffffffffffffffffffffffffffffffffffffffffffffffffffffffff1916145b806104f45750635b5e139f60e01b827bffffffffffffffffffffffffffffffffffffffffffffffffffffffff1916145b9050919050565b60606002805461050a90611d02565b80601f016020809104026020016040519081016040528092919081815260200182805461053690611d02565b80156105835780601f1061055857610100808354040283529160200191610583565b820191906000526020600020905b81548152906001019060200180831161056657829003601f168201915b5050505050905090565b6000610598826110fa565b6105ce576040517fcf4700e400000000000000000000000000000000000000000000000000000000815260040160405180910390fd5b6006600083815260200190815260200160002060000160009054906101000a900473ffffffffffffffffffffffffffffffffffffffff169050919050565b600061061782610aac565b90508073ffffffffffffffffffffffffffffffffffffffff16610638611159565b73ffffffffffffffffffffffffffffffffffffffff161461069b576106648161065f611159565b611066565b61069a576040517fcfb3b94200000000000000000000000000000000000000000000000000000000815260040160405180910390fd5b5b826006600084815260200190815260200160002060000160006101000a81548173ffffffffffffffffffffffffffffffffffffffff021916908373ffffffffffffffffffffffffffffffffffffffff160217905550818373ffffffffffffffffffffffffffffffffffffffff168273ffffffffffffffffffffffffffffffffffffffff167f8c5be1e5ebec7d5bd14f71427d1e84f3dd0314c0f7b2291e5b200ac8c7c3b92560405160405180910390a4505050565b600061075a611161565b6001546000540303905090565b600061077282611166565b90508373ffffffffffffffffffffffffffffffffffffffff168173ffffffffffffffffffffffffffffffffffffffff16146107d9576040517fa114810000000000000000000000000000000000000000000000000000000000815260040160405180910390fd5b6000806107e584611234565b915091506107fb81876107f6611159565b61125b565b610847576108108661080b611159565b611066565b610846576040517f59c896be00000000000000000000000000000000000000000000000000000000815260040160405180910390fd5b5b600073ffffffffffffffffffffffffffffffffffffffff168573ffffffffffffffffffffffffffffffffffffffff1614156108ae576040517fea553b3400000000000000000000000000000000000000000000000000000000815260040160405180910390fd5b6108bb868686600161129f565b80156108c657600082555b600560008773ffffffffffffffffffffffffffffffffffffffff1673ffffffffffffffffffffffffffffffffffffffff168152602001908152602001600020600081546001900391905081905550600560008673ffffffffffffffffffffffffffffffffffffffff1673ffffffffffffffffffffffffffffffffffffffff1681526020019081526020016000206000815460010191905081905550610994856109708888876112a5565b7c0200000000000000000000000000000000000000000000000000000000176112cd565b600460008681526020019081526020016000208190555060007c020000000000000000000000000000000000000000000000000000000084161415610a1c576000600185019050600060046000838152602001908152602001600020541415610a1a576000548114610a19578360046000838152602001908152602001600020819055505b5b505b838573ffffffffffffffffffffffffffffffffffffffff168773ffffffffffffffffffffffffffffffffffffffff167fddf252ad1be2c89b69c2b068fc378daa952ba7f163c4a11628f55a4df523b3ef60405160405180910390a4610a8486868660016112f8565b505050505050565b610aa783838360405180602001604052806000815250610f4e565b505050565b6000610ab782611166565b9050919050565b60008073ffffffffffffffffffffffffffffffffffffffff168273ffffffffffffffffffffffffffffffffffffffff161415610b26576040517f8f4eb60400000000000000000000000000000000000000000000000000000000815260040160405180910390fd5b67ffffffffffffffff600560008473ffffffffffffffffffffffffffffffffffffffff1673ffffffffffffffffffffffffffffffffffffffff16815260200190815260200160002054169050919050565b600b8054610b8490611d02565b80601f0160208091040260200160405190810160405280929190818152602001828054610bb090611d02565b8015610bfd5780601f10610bd257610100808354040283529160200191610bfd565b820191906000526020600020905b815481529060010190602001808311610be057829003601f168201915b505050505081565b600860009054906101000a900473ffffffffffffffffffffffffffffffffffffffff1681565b6060600b8054610c3a90611d02565b80601f0160208091040260200160405190810160405280929190818152602001828054610c6690611d02565b8015610cb35780601f10610c8857610100808354040283529160200191610cb3565b820191906000526020600020905b815481529060010190602001808311610c9657829003601f168201915b5050505050905090565b606060038054610ccc90611d02565b80601f0160208091040260200160405190810160405280929190818152602001828054610cf890611d02565b8015610d455780601f10610d1a57610100808354040283529160200191610d45565b820191906000526020600020905b815481529060010190602001808311610d2857829003601f168201915b5050505050905090565b600860009054906101000a900473ffffffffffffffffffffffffffffffffffffffff1673ffffffffffffffffffffffffffffffffffffffff163373ffffffffffffffffffffffffffffffffffffffff1614610ddf576040517f08c379a0000000000000000000000000000000000000000000000000000000008152600401610dd690611da6565b60405180910390fd5b60095481610deb610750565b610df59190611df5565b1115610e36576040517f08c379a0000000000000000000000000000000000000000000000000000000008152600401610e2d90611e97565b60405180910390fd5b610e4033826112fe565b50565b8060076000610e50611159565b73ffffffffffffffffffffffffffffffffffffffff1673ffffffffffffffffffffffffffffffffffffffff16815260200190815260200160002060008473ffffffffffffffffffffffffffffffffffffffff1673ffffffffffffffffffffffffffffffffffffffff16815260200190815260200160002060006101000a81548160ff0219169083151502179055508173ffffffffffffffffffffffffffffffffffffffff16610efd611159565b73ffffffffffffffffffffffffffffffffffffffff167f17307eab39ab6107e8899845ad3d59bd9653f200f220920489ca2b5937696c3183604051610f4291906117c4565b60405180910390a35050565b610f59848484610767565b60008373ffffffffffffffffffffffffffffffffffffffff163b14610fbb57610f84848484846114bb565b610fba576040517fd1a57ed600000000000000000000000000000000000000000000000000000000815260040160405180910390fd5b5b50505050565b6060610fcc826110fa565b611002576040517fa14c4b5000000000000000000000000000000000000000000000000000000000815260040160405180910390fd5b600061100c61160c565b905060008151141561102d5760405180602001604052806000815250611058565b806110378461169e565b604051602001611048929190611ef3565b6040516020818303038152906040525b915050919050565b60095481565b6000600760008473ffffffffffffffffffffffffffffffffffffffff1673ffffffffffffffffffffffffffffffffffffffff16815260200190815260200160002060008373ffffffffffffffffffffffffffffffffffffffff1673ffffffffffffffffffffffffffffffffffffffff16815260200190815260200160002060009054906101000a900460ff16905092915050565b600081611105611161565b11158015611114575060005482105b8015611152575060007c0100000000000000000000000000000000000000000000000000000000600460008581526020019081526020016000205416145b9050919050565b600033905090565b600090565b60008082905080611175611161565b116111fd576000548110156111fc5760006004600083815260200190815260200160002054905060007c0100000000000000000000000000000000000000000000000000000000821614156111fa575b60008114156111f05760046000836001900393508381526020019081526020016000205490506111c5565b809250505061122f565b505b5b6040517fdf2d9b4200000000000000000000000000000000000000000000000000000000815260040160405180910390fd5b919050565b60008060006006600085815260200190815260200160002090508092508254915050915091565b600073ffffffffffffffffffffffffffffffffffffffff8316925073ffffffffffffffffffffffffffffffffffffffff821691508382148383141790509392505050565b50505050565b60008060e883901c905060e86112bc8686846116f7565b62ffffff16901b9150509392505050565b600073ffffffffffffffffffffffffffffffffffffffff83169250814260a01b178317905092915050565b50505050565b600080549050600082141561133f576040517fb562e8dd00000000000000000000000000000000000000000000000000000000815260040160405180910390fd5b61134c600084838561129f565b600160406001901b178202600560008573ffffffffffffffffffffffffffffffffffffffff1673ffffffffffffffffffffffffffffffffffffffff168152602001908152602001600020600082825401925050819055506113c3836113b460008660006112a5565b6113bd85611700565b176112cd565b6004600083815260200190815260200160002081905550600080838301905073ffffffffffffffffffffffffffffffffffffffff85169150828260007fddf252ad1be2c89b69c2b068fc378daa952ba7f163c4a11628f55a4df523b3ef600080a4600183015b81811461146457808360007fddf252ad1be2c89b69c2b068fc378daa952ba7f163c4a11628f55a4df523b3ef600080a4600181019050611429565b5060008214156114a0576040517f2e07630000000000000000000000000000000000000000000000000000000000815260040160405180910390fd5b8060008190555050506114b660008483856112f8565b505050565b60008373ffffffffffffffffffffffffffffffffffffffff1663150b7a026114e1611159565b8786866040518563ffffffff1660e01b81526004016115039493929190611f6c565b6020604051808303816000875af192505050801561153f57506040513d601f19601f8201168201806040525081019061153c9190611fcd565b60015b6115b9573d806000811461156f576040519150601f19603f3d011682016040523d82523d6000602084013e611574565b606091505b506000815114156115b1576040517fd1a57ed600000000000000000000000000000000000000000000000000000000815260040160405180910390fd5b805181602001fd5b63150b7a0260e01b7bffffffffffffffffffffffffffffffffffffffffffffffffffffffff1916817bffffffffffffffffffffffffffffffffffffffffffffffffffffffff191614915050949350505050565b6060600a805461161b90611d02565b80601f016020809104026020016040519081016040528092919081815260200182805461164790611d02565b80156116945780601f1061166957610100808354040283529160200191611694565b820191906000526020600020905b81548152906001019060200180831161167757829003601f168201915b5050505050905090565b606060a060405101806040526020810391506000825281835b6001156116e257600184039350600a81066030018453600a81049050806116dd576116e2565b6116b7565b50828103602084039350808452505050919050565b60009392505050565b60006001821460e11b9050919050565b6000604051905090565b600080fd5b600080fd5b60007fffffffff0000000000000000000000000000000000000000000000000000000082169050919050565b61175981611724565b811461176457600080fd5b50565b60008135905061177681611750565b92915050565b6000602082840312156117925761179161171a565b5b60006117a084828501611767565b91505092915050565b60008115159050919050565b6117be816117a9565b82525050565b60006020820190506117d960008301846117b5565b92915050565b600081519050919050565b600082825260208201905092915050565b60005b838110156118195780820151818401526020810190506117fe565b83811115611828576000848401525b50505050565b6000601f19601f8301169050919050565b600061184a826117df565b61185481856117ea565b93506118648185602086016117fb565b61186d8161182e565b840191505092915050565b60006020820190508181036000830152611892818461183f565b905092915050565b6000819050919050565b6118ad8161189a565b81146118b857600080fd5b50565b6000813590506118ca816118a4565b92915050565b6000602082840312156118e6576118e561171a565b5b60006118f4848285016118bb565b91505092915050565b600073ffffffffffffffffffffffffffffffffffffffff82169050919050565b6000611928826118fd565b9050919050565b6119388161191d565b82525050565b6000602082019050611953600083018461192f565b92915050565b6119628161191d565b811461196d57600080fd5b50565b60008135905061197f81611959565b92915050565b6000806040838503121561199c5761199b61171a565b5b60006119aa85828601611970565b92505060206119bb858286016118bb565b9150509250929050565b6119ce8161189a565b82525050565b60006020820190506119e960008301846119c5565b92915050565b600080600060608486031215611a0857611a0761171a565b5b6000611a1686828701611970565b9350506020611a2786828701611970565b9250506040611a38868287016118bb565b9150509250925092565b600060208284031215611a5857611a5761171a565b5b6000611a6684828501611970565b91505092915050565b611a78816117a9565b8114611a8357600080fd5b50565b600081359050611a9581611a6f565b92915050565b60008060408385031215611ab257611ab161171a565b5b6000611ac085828601611970565b9250506020611ad185828601611a86565b9150509250929050565b600080fd5b600080fd5b7f4e487b7100000000000000000000000000000000000000000000000000000000600052604160045260246000fd5b611b1d8261182e565b810181811067ffffffffffffffff82111715611b3c57611b3b611ae5565b5b80604052505050565b6000611b4f611710565b9050611b5b8282611b14565b919050565b600067ffffffffffffffff821115611b7b57611b7a611ae5565b5b611b848261182e565b9050602081019050919050565b82818337600083830152505050565b6000611bb3611bae84611b60565b611b45565b905082815260208101848484011115611bcf57611bce611ae0565b5b611bda848285611b91565b509392505050565b600082601f830112611bf757611bf6611adb565b5b8135611c07848260208601611ba0565b91505092915050565b60008060008060808587031215611c2a57611c2961171a565b5b6000611c3887828801611970565b9450506020611c4987828801611970565b9350506040611c5a878288016118bb565b925050606085013567ffffffffffffffff811115611c7b57611c7a61171f565b5b611c8787828801611be2565b91505092959194509250565b60008060408385031215611caa57611ca961171a565b5b6000611cb885828601611970565b9250506020611cc985828601611970565b9150509250929050565b7f4e487b7100000000000000000000000000000000000000000000000000000000600052602260045260246000fd5b60006002820490506001821680611d1a57607f821691505b60208210811415611d2e57611d2d611cd3565b5b50919050565b7f4f6e6c79206f776e65722063616e20706572666f726d2074686973206163746960008201527f6f6e210000000000000000000000000000000000000000000000000000000000602082015250565b6000611d906023836117ea565b9150611d9b82611d34565b604082019050919050565b60006020820190508181036000830152611dbf81611d83565b9050919050565b7f4e487b7100000000000000000000000000000000000000000000000000000000600052601160045260246000fd5b6000611e008261189a565b9150611e0b8361189a565b9250827fffffffffffffffffffffffffffffffffffffffffffffffffffffffffffffffff03821115611e4057611e3f611dc6565b5b828201905092915050565b7f596f752063616e206e6f74206d696e74206d6f7265207468616e203500000000600082015250565b6000611e81601c836117ea565b9150611e8c82611e4b565b602082019050919050565b60006020820190508181036000830152611eb081611e74565b9050919050565b600081905092915050565b6000611ecd826117df565b611ed78185611eb7565b9350611ee78185602086016117fb565b80840191505092915050565b6000611eff8285611ec2565b9150611f0b8284611ec2565b91508190509392505050565b600081519050919050565b600082825260208201905092915050565b6000611f3e82611f17565b611f488185611f22565b9350611f588185602086016117fb565b611f618161182e565b840191505092915050565b6000608082019050611f81600083018761192f565b611f8e602083018661192f565b611f9b60408301856119c5565b8181036060830152611fad8184611f33565b905095945050505050565b600081519050611fc781611750565b92915050565b600060208284031215611fe357611fe261171a565b5b6000611ff184828501611fb8565b9150509291505056fea26469706673582212203401dd6e0804984a313448e12b8ed18bc4b67ca56833d22e954abf20ddf0481964736f6c634300080c0033412063686577696e6747756d2077656172696e6720626c7565206a6572736579206368656572696e67207468652063726f776468747470733a2f2f676174657761792e70696e6174612e636c6f75642f697066732f516d635833516f4855326b534a7745616342447158704c4a335868454766336361777066666a617247774d7161512f",
  "linkReferences": {},
  "deployedLinkReferences": {}
}